{
  "_format": "hh-sol-artifact-1",
  "contractName": "EduConnectCertificates",
  "sourceName": "contracts/EduConnectCertificates.sol",
  "abi": [
    {
      "anonymous": false,
      "inputs": [
        {
          "indexed": true,
          "internalType": "string",
          "name": "certId",
          "type": "string"
        },
        {
          "indexed": true,
          "internalType": "bytes32",
          "name": "contentHash",
          "type": "bytes32"
        },
        {
          "indexed": true,
          "internalType": "address",
          "name": "issuer",
          "type": "address"
        }
      ],
      "name": "CertificateIssued",
      "type": "event"
    },
    {
      "anonymous": false,
      "inputs": [
        {
          "indexed": true,
          "internalType": "string",
          "name": "certId",
          "type": "string"
        }
      ],
      "name": "CertificateRevoked",
      "type": "event"
    },
    {
      "inputs": [
        {
          "internalType": "string",
          "name": "",
          "type": "string"
        }
      ],
      "name": "certificates",
      "outputs": [
        {
          "internalType": "bytes32",
          "name": "contentHash",
          "type": "bytes32"
        },
        {
          "internalType": "address",
          "name": "issuer",
          "type": "address"
        },
        {
          "internalType": "uint256",
          "name": "timestamp",
          "type": "uint256"
        },
        {
          "internalType": "bool",
          "name": "isValid",
          "type": "bool"
        }
      ],
      "stateMutability": "view",
      "type": "function"
    },
    {
      "inputs": [
        {
          "internalType": "string",
          "name": "certId",
          "type": "string"
        }
      ],
      "name": "revoke",
      "outputs": [],
      "stateMutability": "nonpayable",
      "type": "function"
    },
    {
      "inputs": [
        {
          "internalType": "string",
          "name": "certId",
          "type": "string"
        },
        {
          "internalType": "string",
          "name": "hashStr",
          "type": "string"
        }
      ],
      "name": "storeCertificateHash",
      "outputs": [],
      "stateMutability": "nonpayable",
      "type": "function"
    },
    {
      "inputs": [
        {
          "internalType": "string",
          "name": "certId",
          "type": "string"
        },
        {
          "internalType": "string",
          "name": "hashStr",
          "type": "string"
        }
      ],
      "name": "verify",
      "outputs": [
        {
          "internalType": "bool",
          "name": "",
          "type": "bool"
        }
      ],
      "stateMutability": "view",
      "type": "function"
    }
  ],
  "bytecode": "0x608060405234801561001057600080fd5b50610a02806100206000396000f3fe608060405234801561001057600080fd5b506004361061004c5760003560e01c806365b2a863146100515780638f2b91ea1461006d5780639deb17f5146100a0578063a4fcc4e9146100d0575b600080fd5b61006b600480360381019061006691906106ac565b6100ec565b005b610087600480360381019061008291906106ac565b610219565b6040516100979493929190610783565b60405180910390f35b6100ba60048036038101906100b591906107c8565b61028c565b6040516100c79190610840565b60405180910390f35b6100ea60048036038101906100e591906107c8565b61038f565b005b3373ffffffffffffffffffffffffffffffffffffffff1660008260405161011391906108cc565b908152602001604051809103902060010160009054906101000a900473ffffffffffffffffffffffffffffffffffffffff1673ffffffffffffffffffffffffffffffffffffffff161461019b576040517f08c379a000000000000000000000000000000000000000000000000000000000815260040161019290610940565b60405180910390fd5b600080826040516101ac91906108cc565b908152602001604051809103902060030160006101000a81548160ff021916908315150217905550806040516101e291906108cc565b60405180910390207f266095b5af7e2323760fef151f1d78896740cd2cc1b73a6357ff9e4c3fdae74060405160405180910390a250565b6000818051602081018201805184825260208301602085012081835280955050505050506000915090508060000154908060010160009054906101000a900473ffffffffffffffffffffffffffffffffffffffff16908060020154908060030160009054906101000a900460ff16905084565b60008060008460405161029f91906108cc565b9081526020016040518091039020604051806080016040529081600082015481526020016001820160009054906101000a900473ffffffffffffffffffffffffffffffffffffffff1673ffffffffffffffffffffffffffffffffffffffff1673ffffffffffffffffffffffffffffffffffffffff168152602001600282015481526020016003820160009054906101000a900460ff16151515158152505090508060600151610352576000915050610389565b60008360405160200161036591906108cc565b60405160208183030381529060405280519060200120905080826000015114925050505b92915050565b600080836040516103a091906108cc565b908152602001604051809103902060020154146103f2576040517f08c379a00000000000000000000000000000000000000000000000000000000081526004016103e9906109ac565b60405180910390fd5b60008160405160200161040591906108cc565b60405160208183030381529060405280519060200120905060405180608001604052808281526020013373ffffffffffffffffffffffffffffffffffffffff1681526020014281526020016001151581525060008460405161046791906108cc565b90815260200160405180910390206000820151816000015560208201518160010160006101000a81548173ffffffffffffffffffffffffffffffffffffffff021916908373ffffffffffffffffffffffffffffffffffffffff1602179055506040820151816002015560608201518160030160006101000a81548160ff0219169083151502179055509050503373ffffffffffffffffffffffffffffffffffffffff16818460405161051991906108cc565b60405180910390207f5131a4a7dd71283d5deacdb80feb6d3008dcac225ba25996fcc535caa16bafec60405160405180910390a4505050565b6000604051905090565b600080fd5b600080fd5b600080fd5b600080fd5b6000601f19601f8301169050919050565b7f4e487b7100000000000000000000000000000000000000000000000000000000600052604160045260246000fd5b6105b982610570565b810181811067ffffffffffffffff821117156105d8576105d7610581565b5b80604052505050565b60006105eb610552565b90506105f782826105b0565b919050565b600067ffffffffffffffff82111561061757610616610581565b5b61062082610570565b9050602081019050919050565b82818337600083830152505050565b600061064f61064a846105fc565b6105e1565b90508281526020810184848401111561066b5761066a61056b565b5b61067684828561062d565b509392505050565b600082601f83011261069357610692610566565b5b81356106a384826020860161063c565b91505092915050565b6000602082840312156106c2576106c161055c565b5b600082013567ffffffffffffffff8111156106e0576106df610561565b5b6106ec8482850161067e565b91505092915050565b6000819050919050565b610708816106f5565b82525050565b600073ffffffffffffffffffffffffffffffffffffffff82169050919050565b60006107398261070e565b9050919050565b6107498161072e565b82525050565b6000819050919050565b6107628161074f565b82525050565b60008115159050919050565b61077d81610768565b82525050565b600060808201905061079860008301876106ff565b6107a56020830186610740565b6107b26040830185610759565b6107bf6060830184610774565b95945050505050565b600080604083850312156107df576107de61055c565b5b600083013567ffffffffffffffff8111156107fd576107fc610561565b5b6108098582860161067e565b925050602083013567ffffffffffffffff81111561082a57610829610561565b5b6108368582860161067e565b9150509250929050565b60006020820190506108556000830184610774565b92915050565b600081519050919050565b600081905092915050565b60005b8381101561088f578082015181840152602081019050610874565b60008484015250505050565b60006108a68261085b565b6108b08185610866565b93506108c0818560208601610871565b80840191505092915050565b60006108d8828461089b565b915081905092915050565b600082825260208201905092915050565b7f4f6e6c79206973737565722063616e207265766f6b6500000000000000000000600082015250565b600061092a6016836108e3565b9150610935826108f4565b602082019050919050565b600060208201905081810360008301526109598161091d565b9050919050565b7f436572746966696361746520616c726561647920657869737473000000000000600082015250565b6000610996601a836108e3565b91506109a182610960565b602082019050919050565b600060208201905081810360008301526109c581610989565b905091905056fea26469706673582212202f895a769d31252052a311af4ea0883de7cad91960f3a29437fc74a7d1248eb764736f6c63430008120033",
  "linkReferences": {},
  "deployedLinkReferences": {}
}